{
  "contractName": "SoftwareOutsource",
  "abi": [
    {
      "inputs": [
        {
          "internalType": "string",
          "name": "_projectName",
          "type": "string"
        },
        {
          "internalType": "string",
          "name": "_projectDetails",
          "type": "string"
        },
        {
          "internalType": "uint256",
          "name": "_timeout",
          "type": "uint256"
        }
      ],
      "stateMutability": "payable",
      "type": "constructor",
      "payable": true
    },
    {
      "anonymous": false,
      "inputs": [
        {
          "indexed": true,
          "internalType": "address",
          "name": "oldOwner",
          "type": "address"
        },
        {
          "indexed": true,
          "internalType": "address",
          "name": "newOwner",
          "type": "address"
        }
      ],
      "name": "OwnerSet",
      "type": "event"
    },
    {
      "inputs": [
        {
          "internalType": "address payable",
          "name": "contractor",
          "type": "address"
        }
      ],
      "name": "addContractor",
      "outputs": [],
      "stateMutability": "nonpayable",
      "type": "function"
    },
    {
      "inputs": [
        {
          "internalType": "enum SoftwareOutsource.ContractState",
          "name": "cs",
          "type": "uint8"
        }
      ],
      "name": "updateState",
      "outputs": [],
      "stateMutability": "nonpayable",
      "type": "function"
    },
    {
      "inputs": [],
      "name": "setStateToFulfilled",
      "outputs": [],
      "stateMutability": "nonpayable",
      "type": "function"
    },
    {
      "inputs": [
        {
          "internalType": "uint256",
          "name": "percentToPay",
          "type": "uint256"
        }
      ],
      "name": "approve",
      "outputs": [],
      "stateMutability": "payable",
      "type": "function",
      "payable": true
    },
    {
      "inputs": [],
      "name": "getState",
      "outputs": [
        {
          "internalType": "uint256",
          "name": "",
          "type": "uint256"
        }
      ],
      "stateMutability": "view",
      "type": "function",
      "constant": true
    }
  ],
  "bytecode": "0x6080604052604051610b38380380610b388339818101604052606081101561002657600080fd5b810190808051604051939291908464010000000082111561004657600080fd5b8382019150602082018581111561005c57600080fd5b825186600182028301116401000000008211171561007957600080fd5b8083526020830192505050908051906020019080838360005b838110156100ad578082015181840152602081019050610092565b50505050905090810190601f1680156100da5780820380516001836020036101000a031916815260200191505b50604052602001805160405193929190846401000000008211156100fd57600080fd5b8382019150602082018581111561011357600080fd5b825186600182028301116401000000008211171561013057600080fd5b8083526020830192505050908051906020019080838360005b83811015610164578082015181840152602081019050610149565b50505050905090810190601f1680156101915780820380516001836020036101000a031916815260200191505b506040526020018051906020019092919050505033600160006101000a81548173ffffffffffffffffffffffffffffffffffffffff021916908373ffffffffffffffffffffffffffffffffffffffff160217905550806000819055506000600360006101000a81548160ff0219169083600281111561020c57fe5b02179055506040518060400160405280848152602001838152506004600082015181600001908051906020019061024492919061026d565b50602082015181600101908051906020019061026192919061026d565b5090505050505061030a565b828054600181600116156101000203166002900490600052602060002090601f016020900481019282601f106102ae57805160ff19168380011785556102dc565b828001600101855582156102dc579182015b828111156102db5782518255916020019190600101906102c0565b5b5090506102e991906102ed565b5090565b5b808211156103065760008160009055506001016102ee565b5090565b61081f806103196000396000f3fe60806040526004361061004a5760003560e01c80630591d3ab1461004f5780631865c57d1461008d578063761768b6146100b8578063b759f95414610109578063c77375ce14610137575b600080fd5b34801561005b57600080fd5b5061008b6004803603602081101561007257600080fd5b81019080803560ff16906020019092919050505061014e565b005b34801561009957600080fd5b506100a26101ce565b6040518082815260200191505060405180910390f35b3480156100c457600080fd5b50610107600480360360208110156100db57600080fd5b81019080803573ffffffffffffffffffffffffffffffffffffffff1690602001909291905050506101f0565b005b6101356004803603602081101561011f57600080fd5b810190808035906020019092919050505061038a565b005b34801561014357600080fd5b5061014c61071c565b005b600160009054906101000a900473ffffffffffffffffffffffffffffffffffffffff1673ffffffffffffffffffffffffffffffffffffffff163373ffffffffffffffffffffffffffffffffffffffff16146101a857600080fd5b80600360006101000a81548160ff021916908360028111156101c657fe5b021790555050565b6000600360009054906101000a900460ff1660028111156101eb57fe5b905090565b600160009054906101000a900473ffffffffffffffffffffffffffffffffffffffff1673ffffffffffffffffffffffffffffffffffffffff163373ffffffffffffffffffffffffffffffffffffffff161461024a57600080fd5b60005b600280549050811015610323578173ffffffffffffffffffffffffffffffffffffffff166002828154811061027e57fe5b9060005260206000200160009054906101000a900473ffffffffffffffffffffffffffffffffffffffff1673ffffffffffffffffffffffffffffffffffffffff161415610316576040517f08c379a000000000000000000000000000000000000000000000000000000000815260040180806020018281038252602181526020018061079d6021913960400191505060405180910390fd5b808060010191505061024d565b506002819080600181540180825580915050600190039060005260206000200160009091909190916101000a81548173ffffffffffffffffffffffffffffffffffffffff021916908373ffffffffffffffffffffffffffffffffffffffff16021790555050565b426000541015610402576040517f08c379a00000000000000000000000000000000000000000000000000000000081526004018080602001828103825260148152602001807f436f6e747261637420686173206578706972656400000000000000000000000081525060200191505060405180910390fd5b600160009054906101000a900473ffffffffffffffffffffffffffffffffffffffff1673ffffffffffffffffffffffffffffffffffffffff163373ffffffffffffffffffffffffffffffffffffffff16146104a8576040517f08c379a000000000000000000000000000000000000000000000000000000000815260040180806020018281038252602c8152602001806107be602c913960400191505060405180910390fd5b600160028111156104b557fe5b600360009054906101000a900460ff1660028111156104d057fe5b14610543576040517f08c379a000000000000000000000000000000000000000000000000000000000815260040180806020018281038252601f8152602001807f436f6e747261637420686173206e6f74206265656e2066756c66696c6c65640081525060200191505060405180910390fd5b60028081111561054f57fe5b600360009054906101000a900460ff16600281111561056a57fe5b14156105de576040517f08c379a000000000000000000000000000000000000000000000000000000000815260040180806020018281038252601d8152602001807f5061796d656e742068617320616c7265616479206265656e206d61646500000081525060200191505060405180910390fd5b600060028054905011610659576040517f08c379a00000000000000000000000000000000000000000000000000000000081526004018080602001828103825260148152602001807f4e6f20636f6e74726163746f727320616464656400000000000000000000000081525060200191505060405180910390fd5b60005b6002805490508110156106f4576002818154811061067657fe5b9060005260206000200160009054906101000a900473ffffffffffffffffffffffffffffffffffffffff1673ffffffffffffffffffffffffffffffffffffffff166108fc479081150290604051600060405180830381858888f193505050501580156106e6573d6000803e3d6000fd5b50808060010191505061065c565b506002600360006101000a81548160ff0219169083600281111561071457fe5b021790555050565b600160009054906101000a900473ffffffffffffffffffffffffffffffffffffffff1673ffffffffffffffffffffffffffffffffffffffff163373ffffffffffffffffffffffffffffffffffffffff161461077657600080fd5b6001600360006101000a81548160ff0219169083600281111561079557fe5b021790555056fe436f6e74726163746f722068617320616c7265616479206265656e206164646564596f7520617265206e6f7420617574686f72697a656420746f2063616c6c20746869732066756e6374696f6ea2646970667358221220cd72b1b361711a9c3f49406328762e1217973ed4bf0f5b138a345b2c6cc3a5dc64736f6c63430007000033",
  "immutableReferences": {},
  "source": "// SPDX-License-Identifier: GPL-3.0\npragma solidity >=0.7.0 <0.9.0;\n\n\ncontract SoftwareOutsource\n{  \n    enum ContractState { NOT_FULFILLED, FULFILLED, COMPLETE }\n\n    // epoch time that the contract will expire\n    uint timeout;\n\n    // employer is payable for the event we need to return the \n    // payout in the event the contract is not fulfilled\n    address payable employer;\n    address payable[] contractors;\n\n\n    event OwnerSet(address indexed oldOwner, address indexed newOwner);\n    ContractState contractState;\n    ProjectDetails projectDetails;\n\n    struct ProjectDetails\n    {\n        string _projectName;\n        string _projectDescription;\n    }\n\n    constructor (string memory _projectName, string memory _projectDetails, uint256 _timeout) payable\n    {       \n        employer = payable(msg.sender);\n\n        timeout = _timeout;\n\n        contractState = ContractState.NOT_FULFILLED;\n        projectDetails = ProjectDetails(_projectName, _projectDetails);\n    }\n\n    function addContractor(address payable contractor) public onlyEmployer\n    {\n        // Loop through contractors and ensure contractor not already added\n        for (uint i = 0; i < contractors.length; i++)\n        {\n            require (contractors[i] != contractor, \"Contractor has already been added\");\n        }\n        contractors.push(contractor);\n    }\n\n\n    modifier onlyEmployer()\n    {\n        require(msg.sender == employer);\n        _;\n    }\n\n    /**\n     * @dev Set a new state\n     * @param cs A new state to set\n     * \n    */\n    function updateState(ContractState cs) public onlyEmployer\n    {\n        contractState = cs;\n    }\n\n    function setStateToFulfilled() public onlyEmployer {\n        contractState = ContractState.FULFILLED;\n    }\n\n\n    // BUG: Payment does not get made if paidOut is used as transfer() value\n    // TODO: Allow selection of contractors to pay, instead of everyone\n    function approve(uint percentToPay) payable public //returns (uint paidOut)\n    {\n        require(timeout >= block.timestamp, \"Contract has expired\");\n        require(msg.sender == employer, \"You are not authorized to call this function\");\n        require(contractState == ContractState.FULFILLED, \"Contract has not been fulfilled\");\n        require(contractState != ContractState.COMPLETE, \"Payment has already been made\");\n       // require(address(this).balance >= value, \"Insufficient Balance\");\n        require(contractors.length > 0, \"No contractors added\");\n\n        // extract the percentage to payout\n        // percentToPay is set by Jenkins and will change based on the amount of tests that pass\n/*        uint value = (percentToPay / 100) * address(this).balance;\n        \n        // Divide payout equally between contractors\n        paidOut = value / contractors.length;\n*/\n        \n        for (uint i = 0; i < contractors.length; i++)\n        {\n            contractors[i].transfer(address(this).balance);\n        }\n\n        // Mark the contract as complete so it can not be called twice\n        contractState = ContractState.COMPLETE;\n    }\n\n    function getState() public view returns (uint) {\n        return uint(contractState);\n    }\n    \n}",
  "sourcePath": "/home/kyriacosm/Documents/University/Postgraduate/Noncense/smart-contract-testing/contracts/SoftwareOutsource.sol",
  "compiler": {
    "name": "solc",
    "version": "0.7.0+commit.9e61f92b.Emscripten.clang"
  },
  "schemaVersion": "3.3.4",
  "updatedAt": "2021-03-23T15:47:49.981Z",
  "networkType": "ethereum",
  "devdoc": {
    "kind": "dev",
    "methods": {
      "updateState(uint8)": {
        "details": "Set a new state",
        "params": {
          "cs": "A new state to set "
        }
      }
    },
    "version": 1
  },
  "userdoc": {
    "kind": "user",
    "methods": {},
    "version": 1
  }
}