{
  "contractName": "SoftwareOutsource",
  "abi": [
    {
      "inputs": [
        {
          "internalType": "string",
          "name": "_projectName",
          "type": "string"
        },
        {
          "internalType": "string",
          "name": "_projectDetails",
          "type": "string"
        },
        {
          "internalType": "uint256",
          "name": "_timeout",
          "type": "uint256"
        }
      ],
      "stateMutability": "payable",
      "type": "constructor",
      "payable": true
    },
    {
      "anonymous": false,
      "inputs": [
        {
          "indexed": true,
          "internalType": "address",
          "name": "oldOwner",
          "type": "address"
        },
        {
          "indexed": true,
          "internalType": "address",
          "name": "newOwner",
          "type": "address"
        }
      ],
      "name": "OwnerSet",
      "type": "event"
    },
    {
      "inputs": [
        {
          "internalType": "address payable",
          "name": "contractor",
          "type": "address"
        }
      ],
      "name": "addContractor",
      "outputs": [],
      "stateMutability": "nonpayable",
      "type": "function"
    },
    {
      "inputs": [
        {
          "internalType": "enum SoftwareOutsource.ContractState",
          "name": "cs",
          "type": "uint8"
        }
      ],
      "name": "updateState",
      "outputs": [],
      "stateMutability": "nonpayable",
      "type": "function"
    },
    {
      "inputs": [],
      "name": "setStateToFulfilled",
      "outputs": [],
      "stateMutability": "nonpayable",
      "type": "function"
    },
    {
      "inputs": [
        {
          "internalType": "uint256",
          "name": "percentToPay",
          "type": "uint256"
        }
      ],
      "name": "approve",
      "outputs": [],
      "stateMutability": "payable",
      "type": "function",
      "payable": true
    },
    {
      "inputs": [],
      "name": "getState",
      "outputs": [
        {
          "internalType": "uint256",
          "name": "",
          "type": "uint256"
        }
      ],
      "stateMutability": "view",
      "type": "function",
      "constant": true
    },
    {
      "inputs": [],
      "name": "getEmployer",
      "outputs": [
        {
          "internalType": "address payable",
          "name": "",
          "type": "address"
        }
      ],
      "stateMutability": "view",
      "type": "function",
      "constant": true
    },
    {
      "inputs": [],
      "name": "getContractors",
      "outputs": [
        {
          "internalType": "address payable[]",
          "name": "",
          "type": "address[]"
        }
      ],
      "stateMutability": "view",
      "type": "function",
      "constant": true
    }
  ],
  "bytecode": "0x608060405260405162000d3d38038062000d3d833981810160405260608110156200002957600080fd5b81019080805160405193929190846401000000008211156200004a57600080fd5b838201915060208201858111156200006157600080fd5b82518660018202830111640100000000821117156200007f57600080fd5b8083526020830192505050908051906020019080838360005b83811015620000b557808201518184015260208101905062000098565b50505050905090810190601f168015620000e35780820380516001836020036101000a031916815260200191505b50604052602001805160405193929190846401000000008211156200010757600080fd5b838201915060208201858111156200011e57600080fd5b82518660018202830111640100000000821117156200013c57600080fd5b8083526020830192505050908051906020019080838360005b838110156200017257808201518184015260208101905062000155565b50505050905090810190601f168015620001a05780820380516001836020036101000a031916815260200191505b506040526020018051906020019092919050505033600160006101000a81548173ffffffffffffffffffffffffffffffffffffffff021916908373ffffffffffffffffffffffffffffffffffffffff160217905550806000819055506000600360006101000a81548160ff021916908360028111156200021c57fe5b0217905550604051806040016040528084815260200183815250600460008201518160000190805190602001906200025692919062000282565b5060208201518160010190805190602001906200027592919062000282565b5090505050505062000328565b828054600181600116156101000203166002900490600052602060002090601f016020900481019282601f10620002c557805160ff1916838001178555620002f6565b82800160010185558215620002f6579182015b82811115620002f5578251825591602001919060010190620002d8565b5b50905062000305919062000309565b5090565b5b80821115620003245760008160009055506001016200030a565b5090565b610a0580620003386000396000f3fe6080604052600436106100705760003560e01c8063761768b61161004e578063761768b61461014a578063a2b299c11461019b578063b759f954146101dc578063c77375ce1461020a57610070565b80630591d3ab1461007557806310163b67146100b35780631865c57d1461011f575b600080fd5b34801561008157600080fd5b506100b16004803603602081101561009857600080fd5b81019080803560ff169060200190929190505050610221565b005b3480156100bf57600080fd5b506100c86102a1565b6040518080602001828103825283818151815260200191508051906020019060200280838360005b8381101561010b5780820151818401526020810190506100f0565b505050509050019250505060405180910390f35b34801561012b57600080fd5b5061013461032f565b6040518082815260200191505060405180910390f35b34801561015657600080fd5b506101996004803603602081101561016d57600080fd5b81019080803573ffffffffffffffffffffffffffffffffffffffff169060200190929190505050610351565b005b3480156101a757600080fd5b506101b0610546565b604051808273ffffffffffffffffffffffffffffffffffffffff16815260200191505060405180910390f35b610208600480360360208110156101f257600080fd5b8101908080359060200190929190505050610570565b005b34801561021657600080fd5b5061021f610902565b005b600160009054906101000a900473ffffffffffffffffffffffffffffffffffffffff1673ffffffffffffffffffffffffffffffffffffffff163373ffffffffffffffffffffffffffffffffffffffff161461027b57600080fd5b80600360006101000a81548160ff0219169083600281111561029957fe5b021790555050565b6060600280548060200260200160405190810160405280929190818152602001828054801561032557602002820191906000526020600020905b8160009054906101000a900473ffffffffffffffffffffffffffffffffffffffff1673ffffffffffffffffffffffffffffffffffffffff16815260200190600101908083116102db575b5050505050905090565b6000600360009054906101000a900460ff16600281111561034c57fe5b905090565b600160009054906101000a900473ffffffffffffffffffffffffffffffffffffffff1673ffffffffffffffffffffffffffffffffffffffff163373ffffffffffffffffffffffffffffffffffffffff16146103ab57600080fd5b60005b6002805490508110156104df578173ffffffffffffffffffffffffffffffffffffffff16600282815481106103df57fe5b9060005260206000200160009054906101000a900473ffffffffffffffffffffffffffffffffffffffff1673ffffffffffffffffffffffffffffffffffffffff161415610477576040517f08c379a00000000000000000000000000000000000000000000000000000000081526004018080602001828103825260218152602001806109836021913960400191505060405180910390fd5b600160009054906101000a900473ffffffffffffffffffffffffffffffffffffffff1673ffffffffffffffffffffffffffffffffffffffff168273ffffffffffffffffffffffffffffffffffffffff1614156104d257600080fd5b80806001019150506103ae565b506002819080600181540180825580915050600190039060005260206000200160009091909190916101000a81548173ffffffffffffffffffffffffffffffffffffffff021916908373ffffffffffffffffffffffffffffffffffffffff16021790555050565b6000600160009054906101000a900473ffffffffffffffffffffffffffffffffffffffff16905090565b4260005410156105e8576040517f08c379a00000000000000000000000000000000000000000000000000000000081526004018080602001828103825260148152602001807f436f6e747261637420686173206578706972656400000000000000000000000081525060200191505060405180910390fd5b600160009054906101000a900473ffffffffffffffffffffffffffffffffffffffff1673ffffffffffffffffffffffffffffffffffffffff163373ffffffffffffffffffffffffffffffffffffffff161461068e576040517f08c379a000000000000000000000000000000000000000000000000000000000815260040180806020018281038252602c8152602001806109a4602c913960400191505060405180910390fd5b6001600281111561069b57fe5b600360009054906101000a900460ff1660028111156106b657fe5b14610729576040517f08c379a000000000000000000000000000000000000000000000000000000000815260040180806020018281038252601f8152602001807f436f6e747261637420686173206e6f74206265656e2066756c66696c6c65640081525060200191505060405180910390fd5b60028081111561073557fe5b600360009054906101000a900460ff16600281111561075057fe5b14156107c4576040517f08c379a000000000000000000000000000000000000000000000000000000000815260040180806020018281038252601d8152602001807f5061796d656e742068617320616c7265616479206265656e206d61646500000081525060200191505060405180910390fd5b60006002805490501161083f576040517f08c379a00000000000000000000000000000000000000000000000000000000081526004018080602001828103825260148152602001807f4e6f20636f6e74726163746f727320616464656400000000000000000000000081525060200191505060405180910390fd5b60005b6002805490508110156108da576002818154811061085c57fe5b9060005260206000200160009054906101000a900473ffffffffffffffffffffffffffffffffffffffff1673ffffffffffffffffffffffffffffffffffffffff166108fc479081150290604051600060405180830381858888f193505050501580156108cc573d6000803e3d6000fd5b508080600101915050610842565b506002600360006101000a81548160ff021916908360028111156108fa57fe5b021790555050565b600160009054906101000a900473ffffffffffffffffffffffffffffffffffffffff1673ffffffffffffffffffffffffffffffffffffffff163373ffffffffffffffffffffffffffffffffffffffff161461095c57600080fd5b6001600360006101000a81548160ff0219169083600281111561097b57fe5b021790555056fe436f6e74726163746f722068617320616c7265616479206265656e206164646564596f7520617265206e6f7420617574686f72697a656420746f2063616c6c20746869732066756e6374696f6ea2646970667358221220c940234fac403104a20fc6fef36fa246389344da45128f283626cfc655bc8c6564736f6c63430007000033",
  "immutableReferences": {},
  "source": "// SPDX-License-Identifier: GPL-3.0\npragma solidity >=0.7.0 <0.9.0;\n\n\ncontract SoftwareOutsource\n{  \n    enum ContractState { NOT_FULFILLED, FULFILLED, COMPLETE }\n\n    // epoch time that the contract will expire\n    uint timeout;\n\n    // employer is payable for the event we need to return the \n    // payout in the event the contract is not fulfilled\n    address payable employer;\n    address payable[] contractors;\n\n\n    event OwnerSet(address indexed oldOwner, address indexed newOwner);\n    ContractState contractState;\n    ProjectDetails projectDetails;\n\n    struct ProjectDetails\n    {\n        string _projectName;\n        string _projectDescription;\n    }\n\n    constructor (string memory _projectName, string memory _projectDetails, uint256 _timeout) payable\n    {       \n        employer = payable(msg.sender);\n\n        timeout = _timeout;\n\n        contractState = ContractState.NOT_FULFILLED;\n        projectDetails = ProjectDetails(_projectName, _projectDetails);\n    }\n\n    function addContractor(address payable contractor) public onlyEmployer\n    {\n        // Loop through contractors and ensure contractor not already added\n        for (uint i = 0; i < contractors.length; i++)\n        {\n            require (contractors[i] != contractor, \"Contractor has already been added\");\n            require (contractor != employer);\n        }\n        contractors.push(contractor);\n    }\n\n\n    modifier onlyEmployer()\n    {\n        require(msg.sender == employer);\n        _;\n    }\n\n    /**\n     * @dev Set a new state\n     * @param cs A new state to set\n     * \n    */\n    function updateState(ContractState cs) public onlyEmployer\n    {\n        contractState = cs;\n    }\n\n    function setStateToFulfilled() public onlyEmployer {\n        contractState = ContractState.FULFILLED;\n    }\n\n\n    // BUG: Payment does not get made if paidOut is used as transfer() value\n    // TODO: Allow selection of contractors to pay, instead of everyone\n    function approve(uint percentToPay) payable public //returns (uint paidOut)\n    {\n        require(timeout >= block.timestamp, \"Contract has expired\");\n        require(msg.sender == employer, \"You are not authorized to call this function\");\n        require(contractState == ContractState.FULFILLED, \"Contract has not been fulfilled\");\n        require(contractState != ContractState.COMPLETE, \"Payment has already been made\");\n       // require(address(this).balance >= value, \"Insufficient Balance\");\n        require(contractors.length > 0, \"No contractors added\");\n\n        // extract the percentage to payout\n        // percentToPay is set by Jenkins and will change based on the amount of tests that pass\n/*        uint value = (percentToPay / 100) * address(this).balance;\n        \n        // Divide payout equally between contractors\n        paidOut = value / contractors.length;\n*/\n        \n        for (uint i = 0; i < contractors.length; i++)\n        {\n            contractors[i].transfer(address(this).balance);\n        }\n\n        // Mark the contract as complete so it can not be called twice\n        contractState = ContractState.COMPLETE;\n    }\n\n    function getState() public view returns (uint) {\n        return uint(contractState);\n    }\n\n    function getEmployer() public view returns (address payable) {\n        return employer;\n    }\n\n    function getContractors() public view returns (address payable[] memory) {\n        return contractors;\n    }\n    \n}",
  "sourcePath": "/home/kyriacosm/Documents/University/Postgraduate/Noncense/smart-contract-testing/contracts/SoftwareOutsource.sol",
  "compiler": {
    "name": "solc",
    "version": "0.7.0+commit.9e61f92b.Emscripten.clang"
  },
  "schemaVersion": "3.3.4",
  "updatedAt": "2021-04-08T12:18:05.675Z",
  "networkType": "ethereum",
  "devdoc": {
    "kind": "dev",
    "methods": {
      "updateState(uint8)": {
        "details": "Set a new state",
        "params": {
          "cs": "A new state to set "
        }
      }
    },
    "version": 1
  },
  "userdoc": {
    "kind": "user",
    "methods": {},
    "version": 1
  }
}