{
  "contractName": "SoftwareOutsouce",
  "abi": [
    {
      "inputs": [
        {
          "internalType": "string",
          "name": "_projectName",
          "type": "string"
        },
        {
          "internalType": "string",
          "name": "_projectDetails",
          "type": "string"
        }
      ],
      "stateMutability": "payable",
      "type": "constructor"
    },
    {
      "anonymous": false,
      "inputs": [
        {
          "indexed": true,
          "internalType": "address",
          "name": "oldOwner",
          "type": "address"
        },
        {
          "indexed": true,
          "internalType": "address",
          "name": "newOwner",
          "type": "address"
        }
      ],
      "name": "OwnerSet",
      "type": "event"
    },
    {
      "inputs": [
        {
          "internalType": "address payable[]",
          "name": "_contractors",
          "type": "address[]"
        }
      ],
      "name": "setContractor",
      "outputs": [],
      "stateMutability": "nonpayable",
      "type": "function"
    },
    {
      "inputs": [
        {
          "internalType": "address payable",
          "name": "newOwner",
          "type": "address"
        }
      ],
      "name": "changeOwner",
      "outputs": [],
      "stateMutability": "nonpayable",
      "type": "function"
    },
    {
      "inputs": [
        {
          "internalType": "enum SoftwareOutsouce.ContractState",
          "name": "cs",
          "type": "uint8"
        }
      ],
      "name": "updateState",
      "outputs": [],
      "stateMutability": "nonpayable",
      "type": "function"
    },
    {
      "inputs": [],
      "name": "approve",
      "outputs": [],
      "stateMutability": "payable",
      "type": "function"
    },
    {
      "inputs": [],
      "name": "getState",
      "outputs": [
        {
          "internalType": "string",
          "name": "pn",
          "type": "string"
        }
      ],
      "stateMutability": "view",
      "type": "function"
    }
  ],
  "bytecode": "0x608060405260405162000b4238038062000b428339818101604052604081101561002857600080fd5b810190808051604051939291908464010000000082111561004857600080fd5b8382019150602082018581111561005e57600080fd5b825186600182028301116401000000008211171561007b57600080fd5b8083526020830192505050908051906020019080838360005b838110156100af578082015181840152602081019050610094565b50505050905090810190601f1680156100dc5780820380516001836020036101000a031916815260200191505b50604052602001805160405193929190846401000000008211156100ff57600080fd5b8382019150602082018581111561011557600080fd5b825186600182028301116401000000008211171561013257600080fd5b8083526020830192505050908051906020019080838360005b8381101561016657808201518184015260208101905061014b565b50505050905090810190601f1680156101935780820380516001836020036101000a031916815260200191505b506040525050503460008190555033600160006101000a81548173ffffffffffffffffffffffffffffffffffffffff021916908373ffffffffffffffffffffffffffffffffffffffff1602179055506000600360006101000a81548160ff0219169083600181111561020157fe5b021790555060405180604001604052808381526020018281525060046000820151816000019080519060200190610239929190610261565b506020820151816001019080519060200190610256929190610261565b50905050505061030c565b828054600181600116156101000203166002900490600052602060002090601f01602090048101928261029757600085556102de565b82601f106102b057805160ff19168380011785556102de565b828001600101855582156102de579182015b828111156102dd5782518255916020019190600101906102c2565b5b5090506102eb91906102ef565b5090565b5b808211156103085760008160009055506001016102f0565b5090565b610826806200031c6000396000f3fe60806040526004361061004a5760003560e01c80630591d3ab1461004f57806312424e3f1461008d5780631865c57d1461009757806337fce5ae14610127578063a6f9dae1146101ec575b600080fd5b34801561005b57600080fd5b5061008b6004803603602081101561007257600080fd5b81019080803560ff16906020019092919050505061023d565b005b6100956102bd565b005b3480156100a357600080fd5b506100ac610516565b6040518080602001828103825283818151815260200191508051906020019080838360005b838110156100ec5780820151818401526020810190506100d1565b50505050905090810190601f1680156101195780820380516001836020036101000a031916815260200191505b509250505060405180910390f35b34801561013357600080fd5b506101ea6004803603602081101561014a57600080fd5b810190808035906020019064010000000081111561016757600080fd5b82018360208201111561017957600080fd5b8035906020019184602083028401116401000000008311171561019b57600080fd5b919080806020026020016040519081016040528093929190818152602001838360200280828437600081840152601f19601f8201169050808301925050505050505091929192905050506105bb565b005b3480156101f857600080fd5b5061023b6004803603602081101561020f57600080fd5b81019080803573ffffffffffffffffffffffffffffffffffffffff16906020019092919050505061062f565b005b600160009054906101000a900473ffffffffffffffffffffffffffffffffffffffff1673ffffffffffffffffffffffffffffffffffffffff163373ffffffffffffffffffffffffffffffffffffffff161461029757600080fd5b80600360006101000a81548160ff021916908360018111156102b557fe5b021790555050565b600160009054906101000a900473ffffffffffffffffffffffffffffffffffffffff1673ffffffffffffffffffffffffffffffffffffffff163373ffffffffffffffffffffffffffffffffffffffff161461031757600080fd5b60018081111561032357fe5b600360009054906101000a900460ff16600181111561033e57fe5b146103b1576040517f08c379a000000000000000000000000000000000000000000000000000000000815260040180806020018281038252601f8152602001807f436f6e747261637420686173206e6f74206265656e2066756c66696c6c65640081525060200191505060405180910390fd5b600054600160009054906101000a900473ffffffffffffffffffffffffffffffffffffffff1673ffffffffffffffffffffffffffffffffffffffff16311015610462576040517f08c379a00000000000000000000000000000000000000000000000000000000081526004018080602001828103825260148152602001807f496e73756666696369656e742042616c616e636500000000000000000000000081525060200191505060405180910390fd5b60006002805490506000548161047457fe5b04905060005b600280549050811015610512576002818154811061049457fe5b9060005260206000200160009054906101000a900473ffffffffffffffffffffffffffffffffffffffff1673ffffffffffffffffffffffffffffffffffffffff166108fc839081150290604051600060405180830381858888f19350505050158015610504573d6000803e3d6000fd5b50808060010191505061047a565b5050565b606060046000018054600181600116156101000203166002900480601f0160208091040260200160405190810160405280929190818152602001828054600181600116156101000203166002900480156105b15780601f10610586576101008083540402835291602001916105b1565b820191906000526020600020905b81548152906001019060200180831161059457829003601f168201915b5050505050905090565b600160009054906101000a900473ffffffffffffffffffffffffffffffffffffffff1673ffffffffffffffffffffffffffffffffffffffff163373ffffffffffffffffffffffffffffffffffffffff161461061557600080fd5b806002908051906020019061062b929190610749565b5050565b600160009054906101000a900473ffffffffffffffffffffffffffffffffffffffff1673ffffffffffffffffffffffffffffffffffffffff163373ffffffffffffffffffffffffffffffffffffffff161461068957600080fd5b8073ffffffffffffffffffffffffffffffffffffffff16600160009054906101000a900473ffffffffffffffffffffffffffffffffffffffff1673ffffffffffffffffffffffffffffffffffffffff167f342827c97908e5e2f71151c08502a66d44b6f758e3ac2f1de95f02eb95f0a73560405160405180910390a380600160006101000a81548173ffffffffffffffffffffffffffffffffffffffff021916908373ffffffffffffffffffffffffffffffffffffffff16021790555050565b8280548282559060005260206000209081019282156107c2579160200282015b828111156107c15782518260006101000a81548173ffffffffffffffffffffffffffffffffffffffff021916908373ffffffffffffffffffffffffffffffffffffffff16021790555091602001919060010190610769565b5b5090506107cf91906107d3565b5090565b5b808211156107ec5760008160009055506001016107d4565b509056fea2646970667358221220390d1b3882b55be091e07e93e69bb5c8637e1db0b910683a16a79d145e51395664736f6c63430007040033",
  "immutableReferences": {},
  "source": "// SPDX-License-Identifier: GPL-3.0\npragma solidity >=0.7.4;\n\ncontract SoftwareOutsouce\n{\n    // TODO: set start and end date for contract\n    // TODO: Security for timeouts\n    // TODO: Allow Jenkins team to specify a percentage of the payout \n    \n\n    enum ContractState { NOT_FULFILLED, FULFILLED }\n\n    // final amount to payout\n    uint value;\n\n    // owner is payable for the event we need to return the \n    // payout in the event the contract is not fulfilled\n    address payable owner;\n    address payable[] contractors;\n\n\n    event OwnerSet(address indexed oldOwner, address indexed newOwner);\n    ContractState contractState;\n    ProjectDetails projectDetails;\n\n    struct ProjectDetails\n    {\n        string _projectName;\n        string _projectDescription;\n    }\n\n    constructor (string memory _projectName, string memory _projectDetails) payable\n    {       \n        value = msg.value; \n        owner = msg.sender;\n\n        contractState = ContractState.NOT_FULFILLED;\n        projectDetails = ProjectDetails(_projectName, _projectDetails);\n    }\n\n    function setContractor(address payable[] memory _contractors) public onlyOwner\n    {\n        contractors = _contractors;\n    }\n\n    modifier onlyOwner()\n    {\n        require(msg.sender == owner);\n        _;\n    }\n\n    /**\n     * @dev Change owner\n     * @param newOwner address of new owner\n     */\n    function changeOwner(address payable newOwner) public onlyOwner {\n        emit OwnerSet(owner, newOwner);\n        owner = newOwner;\n    }\n\n    /**\n     * @dev Set a new state\n     * @param cs A new state to set\n    */\n    function updateState(ContractState cs) public onlyOwner\n    {\n        contractState = cs;\n    }\n\n    function approve() payable public onlyOwner\n    {\n        require(contractState == ContractState.FULFILLED, \"Contract has not been fulfilled\");\n        require(owner.balance >= value, \"Insufficient Balance\");\n\n        // Divide payout equally between contractors\n        // TODO: Add weighted payouts\n        // TODO: Round this value to int\n        uint splitPayout = value / contractors.length;\n\n\n        for (uint i = 0; i < contractors.length; i++)\n        {\n            contractors[i].transfer(splitPayout);\n        }\n    }\n\n    function getState() public view returns (string memory pn) {\n        pn = projectDetails._projectName;\n        // return projectDetails._projectName;\n    }\n}",
  "sourcePath": "/home/kyriacosm/Documents/Distrubted Ledgers and Cryptocurrencies/smart-contract/contracts/SoftwareOutsource.sol",
  "compiler": {
    "name": "solc",
    "version": "0.7.4+commit.3f05b770.Emscripten.clang"
  },
  "schemaVersion": "3.3.4",
  "updatedAt": "2021-03-20T11:25:20.844Z",
  "devdoc": {
    "kind": "dev",
    "methods": {
      "changeOwner(address)": {
        "details": "Change owner",
        "params": {
          "newOwner": "address of new owner"
        }
      },
      "updateState(uint8)": {
        "details": "Set a new state",
        "params": {
          "cs": "A new state to set"
        }
      }
    },
    "version": 1
  },
  "userdoc": {
    "kind": "user",
    "methods": {},
    "version": 1
  }
}